:060000000A128A11DE2F36
:100EEA0048344F344C3441342134F700831203130D
:100EFA00071577080A128A1197270A128A1183128C
:100F0A000313071108000A128A11BF270A128A114D
:100F1A0070300A128A11A9270A128A11932F0A120B
:100F2A008A110028F6007608831203138800071432
:100F3A00C730F500A02FF50B9F2FA32FA42F8312E4
:100F4A000313071088010800F900B72F79088400F5
:100F5A0000080A128A117A270A128A110130F80047
:100F6A007808F907790884000008031DBD2FBE2FF1
:100F7A00AB2F080083160313880183120313880119
:100F8A008316031387108312031387108316031320
:100F9A000711831203130711831603130710831211
:100FAA00031307100F300A128A1197270A128A119F
:100FBA0008000A128A1175270A128A11F0000A1209
:100FCA008A1176270A128A11F1000A128A117727E2
:100FDA000A128A11F2000A128A1178270A128A1151
:100FEA00F3000A128A1179270A128A11F40083017E
:060FFA000A128A11882F83
:08400000FF3FFF3FFF3FFF3FC0
:02400E00313F40
:00000001FF
