:060000000A128A11FC2F18
:100F6A008316031309118910091088010F300A1218
:100F7A008A11C2270A128A110800F3007308831221
:100F8A000313880009150630F2001330F100AD3062
:100F9A00F000F00BCE2FF10BCE2FF20BCE2FD52F68
:100FAA00831203130911880108000A128A11B5274E
:100FBA000A128A118312031309140630F600133039
:100FCA00F500AD30F400F40BE82FF50BE82FF60B23
:100FDA00E82FEF2F30300A128A11C2270A128A111B
:100FEA00831203130910DA2F0A128A1100288301C7
:060FFA000A128A11DA2F31
:08400000FF3FFF3FFF3FFF3FC0
:02400E00313F40
:00000001FF
