:060000000A128A11FC2F18
:100F5C00F20083120313071572080A128A11CB27A9
:100F6C000A128A1183120313071108000A128A113C
:100F7C00DD270A128A1130300A128A11AE270A12A2
:100F8C008A11C72F0A128A110028F10071088312E6
:100F9C00031388000714C730F000D42FF00BD32FA5
:100FAC00D72FD82F8312031307108801080083163C
:100FBC00031388018312031388018316031387100C
:100FCC008312031387108316031307118312031361
:100FDC0007118316031307108312031307100F3026
:100FEC000A128A11CB270A128A11080083010A12ED
:040FFC008A11BC2F6B
:08400000FF3FFF3FFF3FFF3FC0
:02400E00313F40
:00000001FF
